{
  "address": "0xE5dF3b138272801d7d031B244D7970bBdc90EB1c",
  "abi": [
    {
      "inputs": [],
      "stateMutability": "nonpayable",
      "type": "constructor"
    },
    {
      "inputs": [],
      "name": "AccessControlBadConfirmation",
      "type": "error"
    },
    {
      "inputs": [
        {
          "internalType": "address",
          "name": "account",
          "type": "address"
        },
        {
          "internalType": "bytes32",
          "name": "neededRole",
          "type": "bytes32"
        }
      ],
      "name": "AccessControlUnauthorizedAccount",
      "type": "error"
    },
    {
      "inputs": [
        {
          "internalType": "uint256",
          "name": "requested",
          "type": "uint256"
        },
        {
          "internalType": "uint256",
          "name": "available",
          "type": "uint256"
        }
      ],
      "name": "InsufficientBalance",
      "type": "error"
    },
    {
      "inputs": [
        {
          "internalType": "uint256",
          "name": "sent",
          "type": "uint256"
        },
        {
          "internalType": "uint256",
          "name": "minimum",
          "type": "uint256"
        }
      ],
      "name": "InsufficientDeposit",
      "type": "error"
    },
    {
      "inputs": [
        {
          "internalType": "uint256",
          "name": "requested",
          "type": "uint256"
        },
        {
          "internalType": "uint256",
          "name": "available",
          "type": "uint256"
        }
      ],
      "name": "InsufficientPoolFunds",
      "type": "error"
    },
    {
      "inputs": [
        {
          "internalType": "address",
          "name": "addr",
          "type": "address"
        }
      ],
      "name": "InvalidAddress",
      "type": "error"
    },
    {
      "inputs": [
        {
          "internalType": "uint256",
          "name": "amount",
          "type": "uint256"
        }
      ],
      "name": "InvalidAmount",
      "type": "error"
    },
    {
      "inputs": [
        {
          "internalType": "uint256",
          "name": "proposalId",
          "type": "uint256"
        }
      ],
      "name": "InvalidProposalId",
      "type": "error"
    },
    {
      "inputs": [
        {
          "internalType": "address",
          "name": "addr",
          "type": "address"
        }
      ],
      "name": "NotMember",
      "type": "error"
    },
    {
      "inputs": [
        {
          "internalType": "uint256",
          "name": "proposalId",
          "type": "uint256"
        }
      ],
      "name": "ProposalAlreadyExecuted",
      "type": "error"
    },
    {
      "inputs": [
        {
          "internalType": "uint256",
          "name": "proposalId",
          "type": "uint256"
        }
      ],
      "name": "ProposalNotApproved",
      "type": "error"
    },
    {
      "inputs": [],
      "name": "ReentrancyGuardReentrantCall",
      "type": "error"
    },
    {
      "inputs": [
        {
          "internalType": "address",
          "name": "to",
          "type": "address"
        },
        {
          "internalType": "uint256",
          "name": "amount",
          "type": "uint256"
        }
      ],
      "name": "TransferFailed",
      "type": "error"
    },
    {
      "anonymous": false,
      "inputs": [
        {
          "indexed": true,
          "internalType": "address",
          "name": "admin",
          "type": "address"
        },
        {
          "indexed": true,
          "internalType": "address",
          "name": "addedBy",
          "type": "address"
        },
        {
          "indexed": false,
          "internalType": "uint256",
          "name": "timestamp",
          "type": "uint256"
        }
      ],
      "name": "AdminAdded",
      "type": "event"
    },
    {
      "anonymous": false,
      "inputs": [
        {
          "indexed": true,
          "internalType": "address",
          "name": "admin",
          "type": "address"
        },
        {
          "indexed": true,
          "internalType": "address",
          "name": "removedBy",
          "type": "address"
        },
        {
          "indexed": false,
          "internalType": "uint256",
          "name": "timestamp",
          "type": "uint256"
        }
      ],
      "name": "AdminRemoved",
      "type": "event"
    },
    {
      "anonymous": false,
      "inputs": [
        {
          "indexed": true,
          "internalType": "address",
          "name": "member",
          "type": "address"
        },
        {
          "indexed": false,
          "internalType": "uint256",
          "name": "amount",
          "type": "uint256"
        },
        {
          "indexed": false,
          "internalType": "uint256",
          "name": "newBalance",
          "type": "uint256"
        },
        {
          "indexed": false,
          "internalType": "uint256",
          "name": "timestamp",
          "type": "uint256"
        }
      ],
      "name": "Deposited",
      "type": "event"
    },
    {
      "anonymous": false,
      "inputs": [
        {
          "indexed": true,
          "internalType": "address",
          "name": "greetingSetter",
          "type": "address"
        },
        {
          "indexed": false,
          "internalType": "string",
          "name": "newGreeting",
          "type": "string"
        },
        {
          "indexed": false,
          "internalType": "uint256",
          "name": "timestamp",
          "type": "uint256"
        }
      ],
      "name": "GreetingChange",
      "type": "event"
    },
    {
      "anonymous": false,
      "inputs": [
        {
          "indexed": false,
          "internalType": "uint256",
          "name": "oldMinimum",
          "type": "uint256"
        },
        {
          "indexed": false,
          "internalType": "uint256",
          "name": "newMinimum",
          "type": "uint256"
        },
        {
          "indexed": false,
          "internalType": "uint256",
          "name": "timestamp",
          "type": "uint256"
        }
      ],
      "name": "MinimumDepositChanged",
      "type": "event"
    },
    {
      "anonymous": false,
      "inputs": [
        {
          "indexed": true,
          "internalType": "uint256",
          "name": "proposalId",
          "type": "uint256"
        },
        {
          "indexed": true,
          "internalType": "address",
          "name": "proposer",
          "type": "address"
        },
        {
          "indexed": false,
          "internalType": "string",
          "name": "description",
          "type": "string"
        },
        {
          "indexed": false,
          "internalType": "address",
          "name": "target",
          "type": "address"
        },
        {
          "indexed": false,
          "internalType": "uint256",
          "name": "amount",
          "type": "uint256"
        },
        {
          "indexed": false,
          "internalType": "uint256",
          "name": "timestamp",
          "type": "uint256"
        }
      ],
      "name": "ProposalCreated",
      "type": "event"
    },
    {
      "anonymous": false,
      "inputs": [
        {
          "indexed": true,
          "internalType": "uint256",
          "name": "proposalId",
          "type": "uint256"
        },
        {
          "indexed": false,
          "internalType": "address",
          "name": "target",
          "type": "address"
        },
        {
          "indexed": false,
          "internalType": "uint256",
          "name": "amount",
          "type": "uint256"
        },
        {
          "indexed": false,
          "internalType": "bool",
          "name": "success",
          "type": "bool"
        },
        {
          "indexed": false,
          "internalType": "uint256",
          "name": "timestamp",
          "type": "uint256"
        }
      ],
      "name": "ProposalExecuted",
      "type": "event"
    },
    {
      "anonymous": false,
      "inputs": [
        {
          "indexed": true,
          "internalType": "uint256",
          "name": "proposalId",
          "type": "uint256"
        },
        {
          "indexed": false,
          "internalType": "enum InvestmentPool.ProposalStatus",
          "name": "oldStatus",
          "type": "uint8"
        },
        {
          "indexed": false,
          "internalType": "enum InvestmentPool.ProposalStatus",
          "name": "newStatus",
          "type": "uint8"
        },
        {
          "indexed": false,
          "internalType": "address",
          "name": "changedBy",
          "type": "address"
        },
        {
          "indexed": false,
          "internalType": "uint256",
          "name": "timestamp",
          "type": "uint256"
        }
      ],
      "name": "ProposalStatusChanged",
      "type": "event"
    },
    {
      "anonymous": false,
      "inputs": [
        {
          "indexed": true,
          "internalType": "bytes32",
          "name": "role",
          "type": "bytes32"
        },
        {
          "indexed": true,
          "internalType": "bytes32",
          "name": "previousAdminRole",
          "type": "bytes32"
        },
        {
          "indexed": true,
          "internalType": "bytes32",
          "name": "newAdminRole",
          "type": "bytes32"
        }
      ],
      "name": "RoleAdminChanged",
      "type": "event"
    },
    {
      "anonymous": false,
      "inputs": [
        {
          "indexed": true,
          "internalType": "bytes32",
          "name": "role",
          "type": "bytes32"
        },
        {
          "indexed": true,
          "internalType": "address",
          "name": "account",
          "type": "address"
        },
        {
          "indexed": true,
          "internalType": "address",
          "name": "sender",
          "type": "address"
        }
      ],
      "name": "RoleGranted",
      "type": "event"
    },
    {
      "anonymous": false,
      "inputs": [
        {
          "indexed": true,
          "internalType": "bytes32",
          "name": "role",
          "type": "bytes32"
        },
        {
          "indexed": true,
          "internalType": "address",
          "name": "account",
          "type": "address"
        },
        {
          "indexed": true,
          "internalType": "address",
          "name": "sender",
          "type": "address"
        }
      ],
      "name": "RoleRevoked",
      "type": "event"
    },
    {
      "anonymous": false,
      "inputs": [
        {
          "indexed": true,
          "internalType": "address",
          "name": "member",
          "type": "address"
        },
        {
          "indexed": false,
          "internalType": "uint256",
          "name": "amount",
          "type": "uint256"
        },
        {
          "indexed": false,
          "internalType": "uint256",
          "name": "remainingBalance",
          "type": "uint256"
        },
        {
          "indexed": false,
          "internalType": "uint256",
          "name": "timestamp",
          "type": "uint256"
        }
      ],
      "name": "Withdrawn",
      "type": "event"
    },
    {
      "stateMutability": "payable",
      "type": "fallback"
    },
    {
      "inputs": [],
      "name": "ADMIN_ROLE",
      "outputs": [
        {
          "internalType": "bytes32",
          "name": "",
          "type": "bytes32"
        }
      ],
      "stateMutability": "view",
      "type": "function"
    },
    {
      "inputs": [],
      "name": "DEFAULT_ADMIN_ROLE",
      "outputs": [
        {
          "internalType": "bytes32",
          "name": "",
          "type": "bytes32"
        }
      ],
      "stateMutability": "view",
      "type": "function"
    },
    {
      "inputs": [
        {
          "internalType": "address",
          "name": "newAdmin",
          "type": "address"
        }
      ],
      "name": "addAdmin",
      "outputs": [],
      "stateMutability": "nonpayable",
      "type": "function"
    },
    {
      "inputs": [
        {
          "internalType": "uint256",
          "name": "proposalId",
          "type": "uint256"
        }
      ],
      "name": "approveProposal",
      "outputs": [],
      "stateMutability": "nonpayable",
      "type": "function"
    },
    {
      "inputs": [
        {
          "internalType": "string",
          "name": "description",
          "type": "string"
        },
        {
          "internalType": "address",
          "name": "target",
          "type": "address"
        },
        {
          "internalType": "uint256",
          "name": "amount",
          "type": "uint256"
        }
      ],
      "name": "createProposal",
      "outputs": [
        {
          "internalType": "uint256",
          "name": "",
          "type": "uint256"
        }
      ],
      "stateMutability": "nonpayable",
      "type": "function"
    },
    {
      "inputs": [],
      "name": "deposit",
      "outputs": [],
      "stateMutability": "payable",
      "type": "function"
    },
    {
      "inputs": [
        {
          "internalType": "uint256",
          "name": "proposalId",
          "type": "uint256"
        }
      ],
      "name": "executeProposal",
      "outputs": [],
      "stateMutability": "nonpayable",
      "type": "function"
    },
    {
      "inputs": [],
      "name": "getActiveMembers",
      "outputs": [
        {
          "internalType": "address[]",
          "name": "",
          "type": "address[]"
        }
      ],
      "stateMutability": "view",
      "type": "function"
    },
    {
      "inputs": [],
      "name": "getActiveProposals",
      "outputs": [
        {
          "components": [
            {
              "internalType": "uint256",
              "name": "id",
              "type": "uint256"
            },
            {
              "internalType": "string",
              "name": "description",
              "type": "string"
            },
            {
              "internalType": "address",
              "name": "target",
              "type": "address"
            },
            {
              "internalType": "uint256",
              "name": "amount",
              "type": "uint256"
            },
            {
              "internalType": "address",
              "name": "proposer",
              "type": "address"
            },
            {
              "internalType": "uint256",
              "name": "createdAt",
              "type": "uint256"
            },
            {
              "internalType": "bool",
              "name": "executed",
              "type": "bool"
            },
            {
              "internalType": "enum InvestmentPool.ProposalStatus",
              "name": "status",
              "type": "uint8"
            }
          ],
          "internalType": "struct InvestmentPool.Proposal[]",
          "name": "",
          "type": "tuple[]"
        }
      ],
      "stateMutability": "view",
      "type": "function"
    },
    {
      "inputs": [],
      "name": "getAllProposals",
      "outputs": [
        {
          "components": [
            {
              "internalType": "uint256",
              "name": "id",
              "type": "uint256"
            },
            {
              "internalType": "string",
              "name": "description",
              "type": "string"
            },
            {
              "internalType": "address",
              "name": "target",
              "type": "address"
            },
            {
              "internalType": "uint256",
              "name": "amount",
              "type": "uint256"
            },
            {
              "internalType": "address",
              "name": "proposer",
              "type": "address"
            },
            {
              "internalType": "uint256",
              "name": "createdAt",
              "type": "uint256"
            },
            {
              "internalType": "bool",
              "name": "executed",
              "type": "bool"
            },
            {
              "internalType": "enum InvestmentPool.ProposalStatus",
              "name": "status",
              "type": "uint8"
            }
          ],
          "internalType": "struct InvestmentPool.Proposal[]",
          "name": "",
          "type": "tuple[]"
        }
      ],
      "stateMutability": "view",
      "type": "function"
    },
    {
      "inputs": [],
      "name": "getContractBalance",
      "outputs": [
        {
          "internalType": "uint256",
          "name": "",
          "type": "uint256"
        }
      ],
      "stateMutability": "view",
      "type": "function"
    },
    {
      "inputs": [],
      "name": "getDefaultAdminRole",
      "outputs": [
        {
          "internalType": "bytes32",
          "name": "",
          "type": "bytes32"
        }
      ],
      "stateMutability": "pure",
      "type": "function"
    },
    {
      "inputs": [
        {
          "internalType": "address",
          "name": "member",
          "type": "address"
        }
      ],
      "name": "getMemberBalance",
      "outputs": [
        {
          "internalType": "uint256",
          "name": "",
          "type": "uint256"
        }
      ],
      "stateMutability": "view",
      "type": "function"
    },
    {
      "inputs": [
        {
          "internalType": "address",
          "name": "member",
          "type": "address"
        }
      ],
      "name": "getMemberInfo",
      "outputs": [
        {
          "internalType": "uint256",
          "name": "balance",
          "type": "uint256"
        },
        {
          "internalType": "uint256",
          "name": "depositedAt",
          "type": "uint256"
        },
        {
          "internalType": "bool",
          "name": "isActive",
          "type": "bool"
        },
        {
          "internalType": "uint256",
          "name": "depositCounter",
          "type": "uint256"
        }
      ],
      "stateMutability": "view",
      "type": "function"
    },
    {
      "inputs": [],
      "name": "getPoolBalance",
      "outputs": [
        {
          "internalType": "uint256",
          "name": "",
          "type": "uint256"
        }
      ],
      "stateMutability": "view",
      "type": "function"
    },
    {
      "inputs": [
        {
          "internalType": "uint256",
          "name": "proposalId",
          "type": "uint256"
        }
      ],
      "name": "getProposal",
      "outputs": [
        {
          "components": [
            {
              "internalType": "uint256",
              "name": "id",
              "type": "uint256"
            },
            {
              "internalType": "string",
              "name": "description",
              "type": "string"
            },
            {
              "internalType": "address",
              "name": "target",
              "type": "address"
            },
            {
              "internalType": "uint256",
              "name": "amount",
              "type": "uint256"
            },
            {
              "internalType": "address",
              "name": "proposer",
              "type": "address"
            },
            {
              "internalType": "uint256",
              "name": "createdAt",
              "type": "uint256"
            },
            {
              "internalType": "bool",
              "name": "executed",
              "type": "bool"
            },
            {
              "internalType": "enum InvestmentPool.ProposalStatus",
              "name": "status",
              "type": "uint8"
            }
          ],
          "internalType": "struct InvestmentPool.Proposal",
          "name": "",
          "type": "tuple"
        }
      ],
      "stateMutability": "view",
      "type": "function"
    },
    {
      "inputs": [
        {
          "internalType": "bytes32",
          "name": "role",
          "type": "bytes32"
        }
      ],
      "name": "getRoleAdmin",
      "outputs": [
        {
          "internalType": "bytes32",
          "name": "",
          "type": "bytes32"
        }
      ],
      "stateMutability": "view",
      "type": "function"
    },
    {
      "inputs": [],
      "name": "getTotalMembers",
      "outputs": [
        {
          "internalType": "uint256",
          "name": "",
          "type": "uint256"
        }
      ],
      "stateMutability": "view",
      "type": "function"
    },
    {
      "inputs": [
        {
          "internalType": "bytes32",
          "name": "role",
          "type": "bytes32"
        },
        {
          "internalType": "address",
          "name": "account",
          "type": "address"
        }
      ],
      "name": "grantRole",
      "outputs": [],
      "stateMutability": "nonpayable",
      "type": "function"
    },
    {
      "inputs": [],
      "name": "greeting",
      "outputs": [
        {
          "internalType": "string",
          "name": "",
          "type": "string"
        }
      ],
      "stateMutability": "view",
      "type": "function"
    },
    {
      "inputs": [
        {
          "internalType": "bytes32",
          "name": "role",
          "type": "bytes32"
        },
        {
          "internalType": "address",
          "name": "account",
          "type": "address"
        }
      ],
      "name": "hasRole",
      "outputs": [
        {
          "internalType": "bool",
          "name": "",
          "type": "bool"
        }
      ],
      "stateMutability": "view",
      "type": "function"
    },
    {
      "inputs": [
        {
          "internalType": "address",
          "name": "account",
          "type": "address"
        }
      ],
      "name": "isAdmin",
      "outputs": [
        {
          "internalType": "bool",
          "name": "",
          "type": "bool"
        }
      ],
      "stateMutability": "view",
      "type": "function"
    },
    {
      "inputs": [
        {
          "internalType": "address",
          "name": "account",
          "type": "address"
        }
      ],
      "name": "isMember",
      "outputs": [
        {
          "internalType": "bool",
          "name": "",
          "type": "bool"
        }
      ],
      "stateMutability": "view",
      "type": "function"
    },
    {
      "inputs": [
        {
          "internalType": "uint256",
          "name": "",
          "type": "uint256"
        }
      ],
      "name": "memberAddresses",
      "outputs": [
        {
          "internalType": "address",
          "name": "",
          "type": "address"
        }
      ],
      "stateMutability": "view",
      "type": "function"
    },
    {
      "inputs": [
        {
          "internalType": "address",
          "name": "",
          "type": "address"
        }
      ],
      "name": "members",
      "outputs": [
        {
          "internalType": "uint256",
          "name": "balance",
          "type": "uint256"
        },
        {
          "internalType": "uint256",
          "name": "depositedAt",
          "type": "uint256"
        },
        {
          "internalType": "bool",
          "name": "isActive",
          "type": "bool"
        },
        {
          "internalType": "uint256",
          "name": "depositCounter",
          "type": "uint256"
        }
      ],
      "stateMutability": "view",
      "type": "function"
    },
    {
      "inputs": [],
      "name": "minimumDeposit",
      "outputs": [
        {
          "internalType": "uint256",
          "name": "",
          "type": "uint256"
        }
      ],
      "stateMutability": "view",
      "type": "function"
    },
    {
      "inputs": [],
      "name": "proposalCount",
      "outputs": [
        {
          "internalType": "uint256",
          "name": "",
          "type": "uint256"
        }
      ],
      "stateMutability": "view",
      "type": "function"
    },
    {
      "inputs": [
        {
          "internalType": "uint256",
          "name": "",
          "type": "uint256"
        }
      ],
      "name": "proposals",
      "outputs": [
        {
          "internalType": "uint256",
          "name": "id",
          "type": "uint256"
        },
        {
          "internalType": "string",
          "name": "description",
          "type": "string"
        },
        {
          "internalType": "address",
          "name": "target",
          "type": "address"
        },
        {
          "internalType": "uint256",
          "name": "amount",
          "type": "uint256"
        },
        {
          "internalType": "address",
          "name": "proposer",
          "type": "address"
        },
        {
          "internalType": "uint256",
          "name": "createdAt",
          "type": "uint256"
        },
        {
          "internalType": "bool",
          "name": "executed",
          "type": "bool"
        },
        {
          "internalType": "enum InvestmentPool.ProposalStatus",
          "name": "status",
          "type": "uint8"
        }
      ],
      "stateMutability": "view",
      "type": "function"
    },
    {
      "inputs": [
        {
          "internalType": "uint256",
          "name": "proposalId",
          "type": "uint256"
        }
      ],
      "name": "rejectProposal",
      "outputs": [],
      "stateMutability": "nonpayable",
      "type": "function"
    },
    {
      "inputs": [
        {
          "internalType": "address",
          "name": "admin",
          "type": "address"
        }
      ],
      "name": "removeAdmin",
      "outputs": [],
      "stateMutability": "nonpayable",
      "type": "function"
    },
    {
      "inputs": [
        {
          "internalType": "bytes32",
          "name": "role",
          "type": "bytes32"
        },
        {
          "internalType": "address",
          "name": "callerConfirmation",
          "type": "address"
        }
      ],
      "name": "renounceRole",
      "outputs": [],
      "stateMutability": "nonpayable",
      "type": "function"
    },
    {
      "inputs": [
        {
          "internalType": "bytes32",
          "name": "role",
          "type": "bytes32"
        },
        {
          "internalType": "address",
          "name": "account",
          "type": "address"
        }
      ],
      "name": "revokeRole",
      "outputs": [],
      "stateMutability": "nonpayable",
      "type": "function"
    },
    {
      "inputs": [
        {
          "internalType": "string",
          "name": "_newGreeting",
          "type": "string"
        }
      ],
      "name": "setGreeting",
      "outputs": [],
      "stateMutability": "nonpayable",
      "type": "function"
    },
    {
      "inputs": [
        {
          "internalType": "uint256",
          "name": "newMinimum",
          "type": "uint256"
        }
      ],
      "name": "setMinimumDeposit",
      "outputs": [],
      "stateMutability": "nonpayable",
      "type": "function"
    },
    {
      "inputs": [
        {
          "internalType": "bytes4",
          "name": "interfaceId",
          "type": "bytes4"
        }
      ],
      "name": "supportsInterface",
      "outputs": [
        {
          "internalType": "bool",
          "name": "",
          "type": "bool"
        }
      ],
      "stateMutability": "view",
      "type": "function"
    },
    {
      "inputs": [],
      "name": "totalDepositCounter",
      "outputs": [
        {
          "internalType": "uint256",
          "name": "",
          "type": "uint256"
        }
      ],
      "stateMutability": "view",
      "type": "function"
    },
    {
      "inputs": [],
      "name": "totalPoolBalance",
      "outputs": [
        {
          "internalType": "uint256",
          "name": "",
          "type": "uint256"
        }
      ],
      "stateMutability": "view",
      "type": "function"
    },
    {
      "inputs": [
        {
          "internalType": "address",
          "name": "",
          "type": "address"
        }
      ],
      "name": "userDepositCounter",
      "outputs": [
        {
          "internalType": "uint256",
          "name": "",
          "type": "uint256"
        }
      ],
      "stateMutability": "view",
      "type": "function"
    },
    {
      "inputs": [
        {
          "internalType": "uint256",
          "name": "amount",
          "type": "uint256"
        }
      ],
      "name": "withdraw",
      "outputs": [],
      "stateMutability": "nonpayable",
      "type": "function"
    },
    {
      "stateMutability": "payable",
      "type": "receive"
    }
  ],
  "transactionHash": "0xb0ce267e5f5bed151271d8f1beb8ad6b2f2c9f1d529d353df9141c0cc490da9a",
  "args": [],
  "numDeployments": 1,
  "solcInputHash": "83b28e7b4fbba8b2425a14916766d098",
  "bytecode": "0x662386f26fc1000060055560e06040526028608081815290612fae60a03960079061002a90826101e8565b50600060085534801561003c57600080fd5b5060017f9b779b17422d0df92223018b32b4d1fa46e071723d6817e2486d003becc55f005561006c60003361009d565b506100977fa49807205ce4d355092ef5a8a18f56e8913cf4a201fbe287825b095693c217753361009d565b506102a6565b6000828152602081815260408083206001600160a01b038516845290915281205460ff1661013f576000838152602081815260408083206001600160a01b03861684529091529020805460ff191660011790556100f73390565b6001600160a01b0316826001600160a01b0316847f2f8788117e7eff1d82e926ec794901d17c78024a50270940304540a733656f0d60405160405180910390a4506001610143565b5060005b92915050565b634e487b7160e01b600052604160045260246000fd5b600181811c9082168061017357607f821691505b60208210810361019357634e487b7160e01b600052602260045260246000fd5b50919050565b601f8211156101e357806000526020600020601f840160051c810160208510156101c05750805b601f840160051c820191505b818110156101e057600081556001016101cc565b50505b505050565b81516001600160401b0381111561020157610201610149565b6102158161020f845461015f565b84610199565b6020601f82116001811461024957600083156102315750848201515b600019600385901b1c1916600184901b1784556101e0565b600084815260208120601f198516915b828110156102795787850151825560209485019460019092019101610259565b50848210156102975786840151600019600387901b60f8161c191681555b50505050600190811b01905550565b612cf9806102b56000396000f3fe6080604052600436106102345760003560e01c8063831c43ac1161012e578063ca55753a116100ab578063d69095b31161006f578063d69095b3146107ec578063da35c66414610819578063e78ec42e1461082f578063edfcdebb1461084f578063ef690cc01461086557610290565b8063ca55753a14610741578063cc4e629914610777578063cceb68f5146107af578063d0e30db0146107c4578063d547741f146107cc57610290565b8063a230c524116100f2578063a230c52414610683578063a4136862146106bf578063abd70aa2146106df578063bc28d878146106f4578063c7f758a81461071457610290565b8063831c43ac146105f95780638f1803051461061957806391d148541461062e57806398951b561461064e578063a217fddf1461066e57610290565b806336568abe116101bc5780635f1231ea116101805780635f1231ea1461051b578063636bfbab1461058e5780636f9fb98a146105a457806370480275146105b757806375b238fc146105d757610290565b806336568abe1461048d5780634876aebc146104ad5780635026d63e146104cf57806352a9c8d7146104e55780635584c4f9146104f957610290565b80631785f53c116102035780631785f53c146103cf578063248a9ca3146103ef57806324d7806c1461042d5780632e1a7d4d1461044d5780632f2ff15d1461046d57610290565b8063013cf08b146102d657806301ffc9a71461031357806308ae4b0c146103435780630d61b519146103af57610290565b3661029057346004600082825461024b91906124f4565b909155505060408051808201909152601b81527f446972656374204554482072656365697665643a202573207765690000000000602082015261028e9034610887565b005b60405162461bcd60e51b81526020600482015260166024820152752ab9b2903232b837b9b4ba141490333ab731ba34b7b760511b60448201526064015b60405180910390fd5b3480156102e257600080fd5b506102f66102f1366004612507565b6108d0565b60405161030a98979695949392919061259e565b60405180910390f35b34801561031f57600080fd5b5061033361032e366004612602565b6109bf565b604051901515815260200161030a565b34801561034f57600080fd5b5061038961035e36600461264f565b60016020819052600091825260409091208054918101546002820154600390920154909160ff169084565b60408051948552602085019390935290151591830191909152606082015260800161030a565b3480156103bb57600080fd5b5061028e6103ca366004612507565b6109f6565b3480156103db57600080fd5b5061028e6103ea36600461264f565b610cbf565b3480156103fb57600080fd5b5061041f61040a366004612507565b60009081526020819052604090206001015490565b60405190815260200161030a565b34801561043957600080fd5b5061033361044836600461264f565b610dc0565b34801561045957600080fd5b5061028e610468366004612507565b610dda565b34801561047957600080fd5b5061028e61048836600461266a565b610ff3565b34801561049957600080fd5b5061028e6104a836600461266a565b61101e565b3480156104b957600080fd5b506104c2611051565b60405161030a9190612696565b3480156104db57600080fd5b5061041f60045481565b3480156104f157600080fd5b50600061041f565b34801561050557600080fd5b5061050e6111d5565b60405161030a919061276b565b34801561052757600080fd5b5061038961053636600461264f565b6001600160a01b03166000908152600160208181526040928390208351608081018552815480825293820154928101839052600282015460ff1615159481018590526003909101546060909101819052919390929190565b34801561059a57600080fd5b5061041f60055481565b3480156105b057600080fd5b504761041f565b3480156105c357600080fd5b5061028e6105d236600461264f565b611507565b3480156105e357600080fd5b5061041f600080516020612ca483398151915281565b34801561060557600080fd5b5061041f6106143660046127d0565b6115af565b34801561062557600080fd5b5061041f611872565b34801561063a57600080fd5b5061033361064936600461266a565b6118e4565b34801561065a57600080fd5b5061028e610669366004612507565b61190d565b34801561067a57600080fd5b5061041f600081565b34801561068f57600080fd5b5061033361069e36600461264f565b6001600160a01b031660009081526001602052604090206002015460ff1690565b3480156106cb57600080fd5b5061028e6106da366004612871565b611a46565b3480156106eb57600080fd5b5060045461041f565b34801561070057600080fd5b5061028e61070f366004612507565b611ad5565b34801561072057600080fd5b5061073461072f366004612507565b611bbb565b60405161030a919061292a565b34801561074d57600080fd5b5061041f61075c36600461264f565b6001600160a01b031660009081526001602052604090205490565b34801561078357600080fd5b50610797610792366004612507565b611d32565b6040516001600160a01b03909116815260200161030a565b3480156107bb57600080fd5b5061050e611d5c565b61028e611ed1565b3480156107d857600080fd5b5061028e6107e736600461266a565b6120d3565b3480156107f857600080fd5b5061041f61080736600461264f565b60096020526000908152604090205481565b34801561082557600080fd5b5061041f60065481565b34801561083b57600080fd5b5061028e61084a366004612507565b6120f8565b34801561085b57600080fd5b5061041f60085481565b34801561087157600080fd5b5061087a61215c565b60405161030a919061293d565b6108cc828260405160240161089d929190612950565b60408051601f198184030181529190526020810180516001600160e01b0316632d839cb360e21b1790526121ea565b5050565b600381815481106108e057600080fd5b6000918252602090912060079091020180546001820180549193509061090590612972565b80601f016020809104026020016040519081016040528092919081815260200182805461093190612972565b801561097e5780601f106109535761010080835404028352916020019161097e565b820191906000526020600020905b81548152906001019060200180831161096157829003601f168201915b505050600284015460038501546004860154600587015460069097015495966001600160a01b03938416969295509216925060ff8082169161010090041688565b60006001600160e01b03198216637965db0b60e01b14806109f057506301ffc9a760e01b6001600160e01b03198316145b92915050565b600080516020612ca4833981519152610a0e816121f3565b60035482908110610a3557604051630d30dcf560e41b8152600481018290526024016102cd565b610a3d6121fd565b600060038481548110610a5257610a526129a6565b60009182526020909120600790910201600681015490915060ff1615610a8e57604051632776407360e11b8152600481018590526024016102cd565b60016006820154610100900460ff166003811115610aae57610aae612566565b14610acf576040516302c340c760e11b8152600481018590526024016102cd565b60045481600301541115610b075760038101546004805460405163010356f760e51b81526102cd939201918252602082015260400190565b60408051808201909152601b81527f457865637574696e672070726f706f73616c20257320746f202573000000000060208201526002820154610b55919086906001600160a01b0316612219565b60068101805461ffff1916610301179055600381015460048054600090610b7d9084906129bc565b9091555050600281015460038201546040516000926001600160a01b031691908381818185875af1925050503d8060008114610bd5576040519150601f19603f3d011682016040523d82523d6000602084013e610bda565b606091505b505060028301546003840154604080516001600160a01b0390931683526020830191909152821515828201524260608301525191925086917f9e45711ad5cbd3383f5e7c12bddc5e5bbe84aa06df81903d9aa6f46a50877fff9181900360800190a280610ca157816003015460046000828254610c5791906124f4565b909155505060068201805461ffff191661010017905560028201546003830154604051630e21dcbb60e11b81526001600160a01b03909216600483015260248201526044016102cd565b5050610cba6001600080516020612c8483398151915255565b505050565b6000610cca816121f3565b6001600160a01b038216610d125760405162461bcd60e51b815260206004820152600f60248201526e496e76616c6964206164647265737360881b60448201526064016102cd565b336001600160a01b03831603610d635760405162461bcd60e51b815260206004820152601660248201527521b0b73737ba103932b6b7bb32903cb7bab939b2b63360511b60448201526064016102cd565b610d7b600080516020612ca4833981519152836120d3565b60405142815233906001600160a01b038416907fdee304e7e1affe12c7a37539c214abe72d3be7fbc78070c4b889e5e57de433a8906020015b60405180910390a35050565b60006109f0600080516020612ca4833981519152836118e4565b610de26121fd565b3360009081526001602052604090206002015460ff16610e17576040516305b5850b60e21b81523360048201526024016102cd565b80600003610e3b57604051633728b83d60e01b8152600481018290526024016102cd565b33600090815260016020526040902054811115610e8757336000908152600160205260409081902054905163cf47918160e01b81526102cd918391600401918252602082015260400190565b610eaa604051806060016040528060258152602001612c3e602591393383612260565b3360009081526001602052604081208054839290610ec99084906129bc565b925050819055508060046000828254610ee291906129bc565b9091555050336000908152600160205260408120549003610f1857336000908152600160205260409020600201805460ff191690555b604051600090339083908381818185875af1925050503d8060008114610f5a576040519150601f19603f3d011682016040523d82523d6000602084013e610f5f565b606091505b5050905080610f8a57604051630e21dcbb60e11b8152336004820152602481018390526044016102cd565b3360008181526001602090815260409182902054825186815291820152428183015290517f75e161b3e824b114fc1a33274bd7091918dd4e639cede50b78b15a4eea956a219181900360600190a250610ff06001600080516020612c8483398151915255565b50565b60008281526020819052604090206001015461100e816121f3565b61101883836122a7565b50505050565b6001600160a01b03811633146110475760405163334bd91960e11b815260040160405180910390fd5b610cba8282612339565b60606000805b6002548110156110be576001600060028381548110611078576110786129a6565b60009182526020808320909101546001600160a01b0316835282019290925260400190206002015460ff16156110b657816110b2816129cf565b9250505b600101611057565b5060008167ffffffffffffffff8111156110da576110da61285b565b604051908082528060200260200182016040528015611103578160200160208202803683370190505b5090506000805b6002548110156111cc57600160006002838154811061112b5761112b6129a6565b60009182526020808320909101546001600160a01b0316835282019290925260400190206002015460ff16156111c4576002818154811061116e5761116e6129a6565b9060005260206000200160009054906101000a90046001600160a01b031683838151811061119e5761119e6129a6565b6001600160a01b0390921660209283029190910190910152816111c0816129cf565b9250505b60010161110a565b50909392505050565b60606000805b600354811015611293576000600382815481106111fa576111fa6129a6565b906000526020600020906007020160060160019054906101000a900460ff16600381111561122a5761122a612566565b14806112785750600160038281548110611246576112466129a6565b906000526020600020906007020160060160019054906101000a900460ff16600381111561127657611276612566565b145b1561128b5781611287816129cf565b9250505b6001016111db565b5060008167ffffffffffffffff8111156112af576112af61285b565b6040519080825280602002602001820160405280156112e857816020015b6112d5612475565b8152602001906001900390816112cd5790505b5090506000805b6003548110156111cc5760006003828154811061130e5761130e6129a6565b906000526020600020906007020160060160019054906101000a900460ff16600381111561133e5761133e612566565b148061138c575060016003828154811061135a5761135a6129a6565b906000526020600020906007020160060160019054906101000a900460ff16600381111561138a5761138a612566565b145b156114ff57600381815481106113a4576113a46129a6565b906000526020600020906007020160405180610100016040529081600082015481526020016001820180546113d890612972565b80601f016020809104026020016040519081016040528092919081815260200182805461140490612972565b80156114515780601f1061142657610100808354040283529160200191611451565b820191906000526020600020905b81548152906001019060200180831161143457829003601f168201915b505050918352505060028201546001600160a01b03908116602083015260038084015460408401526004840154909116606083015260058301546080830152600683015460ff808216151560a085015260c09093019261010090910416908111156114be576114be612566565b60038111156114cf576114cf612566565b815250508383815181106114e5576114e56129a6565b602002602001018190525081806114fb906129cf565b9250505b6001016112ef565b6000611512816121f3565b6001600160a01b03821661155a5760405162461bcd60e51b815260206004820152600f60248201526e496e76616c6964206164647265737360881b60448201526064016102cd565b611572600080516020612ca483398151915283610ff3565b60405142815233906001600160a01b038416907fc879829b6ab559448e08c444fd0ef1f6e6ec47d851c79f50bc979d2f8f00e18090602001610db4565b3360009081526001602052604081206002015460ff166115e4576040516305b5850b60e21b81523360048201526024016102cd565b6001600160a01b03831661161657604051634726455360e11b81526001600160a01b03841660048201526024016102cd565b811580611624575060045482115b1561164d576004805460405163010356f760e51b815291820184905260248201526044016102cd565b611670604051806060016040528060258152602001612c19602591393384612260565b60006006549050600060405180610100016040528083815260200188888080601f01602080910402602001604051908101604052809392919081815260200183838082843760009201829052509385525050506001600160a01b03881660208301526040820187905233606083015242608083015260a0820181905260c09091015260038054600181018255600091909152815160079091027fc2575a0e9e593c00f959f8c92f12db2869c3395a3b0502d05e2516446f71f85b8101918255602083015192935083927fc2575a0e9e593c00f959f8c92f12db2869c3395a3b0502d05e2516446f71f85c909101906117689082612a36565b5060408201516002820180546001600160a01b03199081166001600160a01b039384161790915560608401516003808501919091556080850151600485018054909316931692909217905560a0830151600583015560c083015160068301805460ff198116921515928317825560e086015193919261ffff1990911661ff0019909116179061010090849081111561180257611802612566565b0217905550506006805491506000611819836129cf565b9190505550336001600160a01b0316827ffcbc93e90de1f3909139448eea84876f427c600d8e1706f36918b4c5635c02138989898942604051611860959493929190612af5565b60405180910390a35095945050505050565b600080805b6002548110156118de576001600060028381548110611898576118986129a6565b60009182526020808320909101546001600160a01b0316835282019290925260400190206002015460ff16156118d657816118d2816129cf565b9250505b600101611877565b50919050565b6000918252602082815260408084206001600160a01b0393909316845291905290205460ff1690565b600080516020612ca4833981519152611925816121f3565b6003548290811061194c57604051630d30dcf560e41b8152600481018290526024016102cd565b600060038481548110611961576119616129a6565b60009182526020909120600790910201600681015490915060ff161561199d57604051632776407360e11b8152600481018590526024016102cd565b60068101805461010080820460ff1692600192909161ff001990911690830217905550611a006040518060400160405280602081526020017f50726f706f73616c20257320617070726f7665642062792061646d696e2025738152508633612219565b847f50c033b08d4ed42386cbfbc441731c3d58dde4b0be0df94f5dbb855af11687608260013342604051611a379493929190612b43565b60405180910390a25050505050565b600080516020612ca4833981519152611a5e816121f3565b611a81604051806060016040528060218152602001612c636021913983336123a4565b6007611a8d8382612a36565b50336001600160a01b03167f50a1f4ee1ad80cc8524d32fe5c610c1df2dcac28824593199c12abfcc6e84d328342604051611ac9929190612950565b60405180910390a25050565b600080516020612ca4833981519152611aed816121f3565b60035482908110611b1457604051630d30dcf560e41b8152600481018290526024016102cd565b600060038481548110611b2957611b296129a6565b60009182526020909120600790910201600681015490915060ff1615611b6557604051632776407360e11b8152600481018590526024016102cd565b60068101805461ff001981166102001790915560405161010090910460ff169085907f50c033b08d4ed42386cbfbc441731c3d58dde4b0be0df94f5dbb855af116876090611a3790849060029033904290612b43565b611bc3612475565b60035482908110611bea57604051630d30dcf560e41b8152600481018290526024016102cd565b60038381548110611bfd57611bfd6129a6565b90600052602060002090600702016040518061010001604052908160008201548152602001600182018054611c3190612972565b80601f0160208091040260200160405190810160405280929190818152602001828054611c5d90612972565b8015611caa5780601f10611c7f57610100808354040283529160200191611caa565b820191906000526020600020905b815481529060010190602001808311611c8d57829003601f168201915b505050918352505060028201546001600160a01b03908116602083015260038084015460408401526004840154909116606083015260058301546080830152600683015460ff808216151560a085015260c0909301926101009091041690811115611d1757611d17612566565b6003811115611d2857611d28612566565b9052509392505050565b60028181548110611d4257600080fd5b6000918252602090912001546001600160a01b0316905081565b60606003805480602002602001604051908101604052809291908181526020016000905b82821015611ec857838290600052602060002090600702016040518061010001604052908160008201548152602001600182018054611dbe90612972565b80601f0160208091040260200160405190810160405280929190818152602001828054611dea90612972565b8015611e375780601f10611e0c57610100808354040283529160200191611e37565b820191906000526020600020905b815481529060010190602001808311611e1a57829003601f168201915b505050918352505060028201546001600160a01b03908116602083015260038084015460408401526004840154909116606083015260058301546080830152600683015460ff808216151560a085015260c0909301926101009091041690811115611ea457611ea4612566565b6003811115611eb557611eb5612566565b8152505081526020019060010190611d80565b50505050905090565b611ed96121fd565b600554341015611f09576005546040516312e1fa3760e11b815234600482015260248101919091526044016102cd565b611f496040518060400160405280601d81526020017f4e6577206465706f7369742066726f6d202573206f66202573207765690000008152503334612260565b3360009081526001602052604090206002015460ff16611fc15733600081815260016020819052604082206002908101805460ff191683179055805491820181559091527f405787fa12a823e0f2b7631cc41b3ba8828b3321ca811111fa75cd3aa3bb5ace0180546001600160a01b03191690911790555b3360009081526001602052604081208054349290611fe09084906124f4565b90915550503360009081526001602081905260408220428183015560030180549192909161200f9084906124f4565b92505081905550346004600082825461202891906124f4565b9250508190555060016008600082825461204291906124f4565b90915550503360009081526009602052604081208054600192906120679084906124f4565b90915550503360008181526001602090815260409182902054825134815291820152428183015290517f91ede45f04a37a7c170f5c1207df3b6bc748dc1e04ad5e917a241d0f52feada39181900360600190a26120d16001600080516020612c8483398151915255565b565b6000828152602081905260409020600101546120ee816121f3565b6110188383612339565b600080516020612ca4833981519152612110816121f3565b60058054908390556040805182815260208101859052428183015290517fd5d1bfb1350f50bd7ede43bc047d82d7323238c3a7ba72ad417b981aa53b70479181900360600190a1505050565b6007805461216990612972565b80601f016020809104026020016040519081016040528092919081815260200182805461219590612972565b80156121e25780601f106121b7576101008083540402835291602001916121e2565b820191906000526020600020905b8154815290600101906020018083116121c557829003601f168201915b505050505081565b610ff0816123eb565b610ff0813361240c565b612205612445565b6002600080516020612c8483398151915255565b610cba83838360405160240161223193929190612b79565b60408051601f198184030181529190526020810180516001600160e01b031663038fd88960e31b1790526121ea565b610cba83838360405160240161227893929190612bac565b60408051601f198184030181529190526020810180516001600160e01b0316630d26b92560e01b1790526121ea565b60006122b383836118e4565b612331576000838152602081815260408083206001600160a01b03861684529091529020805460ff191660011790556122e93390565b6001600160a01b0316826001600160a01b0316847f2f8788117e7eff1d82e926ec794901d17c78024a50270940304540a733656f0d60405160405180910390a45060016109f0565b5060006109f0565b600061234583836118e4565b15612331576000838152602081815260408083206001600160a01b0386168085529252808320805460ff1916905551339286917ff6391f5c32d9c69d2a47ea670b442974b53935d1edc7fd64eb21e047a839171b9190a45060016109f0565b610cba8383836040516024016123bc93929190612bda565b60408051601f198184030181529190526020810180516001600160e01b03166395ed019560e01b1790526121ea565b60006a636f6e736f6c652e6c6f679050600080835160208501845afa505050565b61241682826118e4565b6108cc5760405163e2517d3f60e01b81526001600160a01b0382166004820152602481018390526044016102cd565b600080516020612c84833981519152546002036120d157604051633ee5aeb560e01b815260040160405180910390fd5b604051806101000160405280600081526020016060815260200160006001600160a01b031681526020016000815260200160006001600160a01b0316815260200160008152602001600015158152602001600060038111156124d9576124d9612566565b905290565b634e487b7160e01b600052601160045260246000fd5b808201808211156109f0576109f06124de565b60006020828403121561251957600080fd5b5035919050565b6000815180845260005b818110156125465760208185018101518683018201520161252a565b506000602082860101526020601f19601f83011685010191505092915050565b634e487b7160e01b600052602160045260246000fd5b6004811061259a57634e487b7160e01b600052602160045260246000fd5b9052565b888152610100602082015260006125b961010083018a612520565b6001600160a01b038981166040850152606084018990528716608084015260a0830186905284151560c084015290506125f560e083018461257c565b9998505050505050505050565b60006020828403121561261457600080fd5b81356001600160e01b03198116811461262c57600080fd5b9392505050565b80356001600160a01b038116811461264a57600080fd5b919050565b60006020828403121561266157600080fd5b61262c82612633565b6000806040838503121561267d57600080fd5b8235915061268d60208401612633565b90509250929050565b602080825282518282018190526000918401906040840190835b818110156126d75783516001600160a01b03168352602093840193909201916001016126b0565b509095945050505050565b80518252600060208201516101006020850152612703610100850182612520565b905060018060a01b0360408401511660408501526060830151606085015260018060a01b03608084015116608085015260a083015160a085015260c083015161275060c086018215159052565b5060e083015161276360e086018261257c565b509392505050565b6000602082016020835280845180835260408501915060408160051b86010192506020860160005b828110156127c457603f198786030184526127af8583516126e2565b94506020938401939190910190600101612793565b50929695505050505050565b600080600080606085870312156127e657600080fd5b843567ffffffffffffffff8111156127fd57600080fd5b8501601f8101871361280e57600080fd5b803567ffffffffffffffff81111561282557600080fd5b87602082840101111561283757600080fd5b60209182019550935061284b908601612633565b9396929550929360400135925050565b634e487b7160e01b600052604160045260246000fd5b60006020828403121561288357600080fd5b813567ffffffffffffffff81111561289a57600080fd5b8201601f810184136128ab57600080fd5b803567ffffffffffffffff8111156128c5576128c561285b565b604051601f8201601f19908116603f0116810167ffffffffffffffff811182821017156128f4576128f461285b565b60405281815282820160200186101561290c57600080fd5b81602084016020830137600091810160200191909152949350505050565b60208152600061262c60208301846126e2565b60208152600061262c6020830184612520565b6040815260006129636040830185612520565b90508260208301529392505050565b600181811c9082168061298657607f821691505b6020821081036118de57634e487b7160e01b600052602260045260246000fd5b634e487b7160e01b600052603260045260246000fd5b818103818111156109f0576109f06124de565b6000600182016129e1576129e16124de565b5060010190565b601f821115610cba57806000526020600020601f840160051c81016020851015612a0f5750805b601f840160051c820191505b81811015612a2f5760008155600101612a1b565b5050505050565b815167ffffffffffffffff811115612a5057612a5061285b565b612a6481612a5e8454612972565b846129e8565b6020601f821160018114612a985760008315612a805750848201515b600019600385901b1c1916600184901b178455612a2f565b600084815260208120601f198516915b82811015612ac85787850151825560209485019460019092019101612aa8565b5084821015612ae65786840151600019600387901b60f8161c191681555b50505050600190811b01905550565b60808152846080820152848660a0830137600060a08683018101919091526001600160a01b0394909416602082015260408101929092526060820152601f909201601f191690910101919050565b60808101612b51828761257c565b612b5e602083018661257c565b6001600160a01b039390931660408201526060015292915050565b606081526000612b8c6060830186612520565b6020830194909452506001600160a01b0391909116604090910152919050565b606081526000612bbf6060830186612520565b6001600160a01b039490941660208301525060400152919050565b606081526000612bed6060830186612520565b8281036020840152612bff8186612520565b91505060018060a01b038316604083015294935050505056fe4e65772070726f706f73616c206372656174656420627920257320666f72202573207765695769746864726177616c20726571756573742066726f6d20257320666f722025732077656953657474696e67206e6577206772656574696e6720272573272066726f6d2025739b779b17422d0df92223018b32b4d1fa46e071723d6817e2486d003becc55f00a49807205ce4d355092ef5a8a18f56e8913cf4a201fbe287825b095693c21775a2646970667358221220874943ad551c1309a0de4a24ea3f2361e768929164bf22668aa26171ade2d6d964736f6c634300081e00334275696c64696e6720556e73746f707061626c6520496e766573746d656e7420506f6f6c73212121",
  "devdoc": {
    "author": "Miguel Moiss Mejas Hernndez",
    "details": "Sistema completo de depsitos, retiros, propuestas y gestin",
    "errors": {
      "AccessControlBadConfirmation()": [
        {
          "details": "The caller of a function is not the expected one. NOTE: Don't confuse with {AccessControlUnauthorizedAccount}."
        }
      ],
      "AccessControlUnauthorizedAccount(address,bytes32)": [
        {
          "details": "The `account` is missing a role."
        }
      ],
      "ReentrancyGuardReentrantCall()": [
        {
          "details": "Unauthorized reentrant call."
        }
      ]
    },
    "events": {
      "RoleAdminChanged(bytes32,bytes32,bytes32)": {
        "details": "Emitted when `newAdminRole` is set as ``role``'s admin role, replacing `previousAdminRole` `DEFAULT_ADMIN_ROLE` is the starting admin for all roles, despite {RoleAdminChanged} not being emitted to signal this."
      },
      "RoleGranted(bytes32,address,address)": {
        "details": "Emitted when `account` is granted `role`. `sender` is the account that originated the contract call. This account bears the admin role (for the granted role). Expected in cases where the role was granted using the internal {AccessControl-_grantRole}."
      },
      "RoleRevoked(bytes32,address,address)": {
        "details": "Emitted when `account` is revoked `role`. `sender` is the account that originated the contract call:   - if using `revokeRole`, it is the admin role bearer   - if using `renounceRole`, it is the role bearer (i.e. `account`)"
      }
    },
    "kind": "dev",
    "methods": {
      "addAdmin(address)": {
        "details": "Solo el DEFAULT_ADMIN_ROLE puede llamar esto",
        "params": {
          "newAdmin": "Direccin del nuevo administrador"
        }
      },
      "approveProposal(uint256)": {
        "params": {
          "proposalId": "ID de la propuesta"
        }
      },
      "createProposal(string,address,uint256)": {
        "params": {
          "amount": "Cantidad a invertir",
          "description": "Descripcin de la inversin",
          "target": "Direccin destino de los fondos"
        }
      },
      "deposit()": {
        "details": "El usuario recibe balance proporcional y se convierte en miembro"
      },
      "executeProposal(uint256)": {
        "params": {
          "proposalId": "ID de la propuesta"
        }
      },
      "getMemberBalance(address)": {
        "params": {
          "member": "Direccin del miembro"
        }
      },
      "getMemberInfo(address)": {
        "params": {
          "member": "Direccin del miembro"
        }
      },
      "getProposal(uint256)": {
        "params": {
          "proposalId": "ID de la propuesta"
        }
      },
      "getRoleAdmin(bytes32)": {
        "details": "Returns the admin role that controls `role`. See {grantRole} and {revokeRole}. To change a role's admin, use {_setRoleAdmin}."
      },
      "grantRole(bytes32,address)": {
        "details": "Grants `role` to `account`. If `account` had not been already granted `role`, emits a {RoleGranted} event. Requirements: - the caller must have ``role``'s admin role. May emit a {RoleGranted} event."
      },
      "hasRole(bytes32,address)": {
        "details": "Returns `true` if `account` has been granted `role`."
      },
      "isAdmin(address)": {
        "params": {
          "account": "Direccin a verificar"
        }
      },
      "isMember(address)": {
        "params": {
          "account": "Direccin a verificar"
        }
      },
      "rejectProposal(uint256)": {
        "params": {
          "proposalId": "ID de la propuesta"
        }
      },
      "removeAdmin(address)": {
        "details": "Solo el DEFAULT_ADMIN_ROLE puede llamar esto",
        "params": {
          "admin": "Direccin del administrador a remover"
        }
      },
      "renounceRole(bytes32,address)": {
        "details": "Revokes `role` from the calling account. Roles are often managed via {grantRole} and {revokeRole}: this function's purpose is to provide a mechanism for accounts to lose their privileges if they are compromised (such as when a trusted device is misplaced). If the calling account had been revoked `role`, emits a {RoleRevoked} event. Requirements: - the caller must be `callerConfirmation`. May emit a {RoleRevoked} event."
      },
      "revokeRole(bytes32,address)": {
        "details": "Revokes `role` from `account`. If `account` had been granted `role`, emits a {RoleRevoked} event. Requirements: - the caller must have ``role``'s admin role. May emit a {RoleRevoked} event."
      },
      "setGreeting(string)": {
        "params": {
          "_newGreeting": "Nuevo mensaje de saludo"
        }
      },
      "setMinimumDeposit(uint256)": {
        "params": {
          "newMinimum": "Nuevo mnimo en wei"
        }
      },
      "supportsInterface(bytes4)": {
        "details": "Returns true if this contract implements the interface defined by `interfaceId`. See the corresponding https://eips.ethereum.org/EIPS/eip-165#how-interfaces-are-identified[ERC section] to learn more about how these ids are created. This function call must use less than 30 000 gas."
      },
      "withdraw(uint256)": {
        "params": {
          "amount": "Cantidad a retirar en wei"
        }
      }
    },
    "title": "InvestmentPool",
    "version": 1
  },
  "userdoc": {
    "kind": "user",
    "methods": {
      "addAdmin(address)": {
        "notice": "Agregar un nuevo administrador"
      },
      "approveProposal(uint256)": {
        "notice": "Aprobar una propuesta (solo ADMIN)"
      },
      "createProposal(string,address,uint256)": {
        "notice": "Crear una nueva propuesta de inversin"
      },
      "deposit()": {
        "notice": "Depositar ETH al pool de inversin"
      },
      "executeProposal(uint256)": {
        "notice": "Ejecutar una propuesta aprobada (solo ADMIN)"
      },
      "getActiveMembers()": {
        "notice": "Obtener lista de direcciones de miembros activos"
      },
      "getActiveProposals()": {
        "notice": "Obtener propuestas activas (Pending y Approved)"
      },
      "getAllProposals()": {
        "notice": "Obtener todas las propuestas"
      },
      "getContractBalance()": {
        "notice": "Obtener balance del contrato"
      },
      "getDefaultAdminRole()": {
        "notice": "Obtener el rol de DEFAULT_ADMIN"
      },
      "getMemberBalance(address)": {
        "notice": "Obtener balance de un miembro especfico"
      },
      "getMemberInfo(address)": {
        "notice": "Obtener informacin completa de un miembro"
      },
      "getPoolBalance()": {
        "notice": "Obtener balance total del pool"
      },
      "getProposal(uint256)": {
        "notice": "Obtener detalles de una propuesta"
      },
      "getTotalMembers()": {
        "notice": "Obtener total de miembros activos"
      },
      "isAdmin(address)": {
        "notice": "Verificar si una direccin es administrador"
      },
      "isMember(address)": {
        "notice": "Verificar si una direccin es miembro activo"
      },
      "rejectProposal(uint256)": {
        "notice": "Rechazar una propuesta (solo ADMIN)"
      },
      "removeAdmin(address)": {
        "notice": "Remover un administrador"
      },
      "setGreeting(string)": {
        "notice": "Cambiar el mensaje de saludo"
      },
      "setMinimumDeposit(uint256)": {
        "notice": "Cambiar el depsito mnimo requerido"
      },
      "withdraw(uint256)": {
        "notice": "Retirar fondos del pool"
      }
    },
    "notice": "Contrato para gestin de pool de inversin colectiva",
    "version": 1
  },
  "storageLayout": {
    "storage": [
      {
        "astId": 27,
        "contract": "contracts/InvestmentPool.sol:InvestmentPool",
        "label": "_roles",
        "offset": 0,
        "slot": "0",
        "type": "t_mapping(t_bytes32,t_struct(RoleData)22_storage)"
      },
      {
        "astId": 734,
        "contract": "contracts/InvestmentPool.sol:InvestmentPool",
        "label": "members",
        "offset": 0,
        "slot": "1",
        "type": "t_mapping(t_address,t_struct(Member)706_storage)"
      },
      {
        "astId": 737,
        "contract": "contracts/InvestmentPool.sol:InvestmentPool",
        "label": "memberAddresses",
        "offset": 0,
        "slot": "2",
        "type": "t_array(t_address)dyn_storage"
      },
      {
        "astId": 741,
        "contract": "contracts/InvestmentPool.sol:InvestmentPool",
        "label": "proposals",
        "offset": 0,
        "slot": "3",
        "type": "t_array(t_struct(Proposal)724_storage)dyn_storage"
      },
      {
        "astId": 743,
        "contract": "contracts/InvestmentPool.sol:InvestmentPool",
        "label": "totalPoolBalance",
        "offset": 0,
        "slot": "4",
        "type": "t_uint256"
      },
      {
        "astId": 746,
        "contract": "contracts/InvestmentPool.sol:InvestmentPool",
        "label": "minimumDeposit",
        "offset": 0,
        "slot": "5",
        "type": "t_uint256"
      },
      {
        "astId": 748,
        "contract": "contracts/InvestmentPool.sol:InvestmentPool",
        "label": "proposalCount",
        "offset": 0,
        "slot": "6",
        "type": "t_uint256"
      },
      {
        "astId": 751,
        "contract": "contracts/InvestmentPool.sol:InvestmentPool",
        "label": "greeting",
        "offset": 0,
        "slot": "7",
        "type": "t_string_storage"
      },
      {
        "astId": 754,
        "contract": "contracts/InvestmentPool.sol:InvestmentPool",
        "label": "totalDepositCounter",
        "offset": 0,
        "slot": "8",
        "type": "t_uint256"
      },
      {
        "astId": 758,
        "contract": "contracts/InvestmentPool.sol:InvestmentPool",
        "label": "userDepositCounter",
        "offset": 0,
        "slot": "9",
        "type": "t_mapping(t_address,t_uint256)"
      }
    ],
    "types": {
      "t_address": {
        "encoding": "inplace",
        "label": "address",
        "numberOfBytes": "20"
      },
      "t_array(t_address)dyn_storage": {
        "base": "t_address",
        "encoding": "dynamic_array",
        "label": "address[]",
        "numberOfBytes": "32"
      },
      "t_array(t_struct(Proposal)724_storage)dyn_storage": {
        "base": "t_struct(Proposal)724_storage",
        "encoding": "dynamic_array",
        "label": "struct InvestmentPool.Proposal[]",
        "numberOfBytes": "32"
      },
      "t_bool": {
        "encoding": "inplace",
        "label": "bool",
        "numberOfBytes": "1"
      },
      "t_bytes32": {
        "encoding": "inplace",
        "label": "bytes32",
        "numberOfBytes": "32"
      },
      "t_enum(ProposalStatus)729": {
        "encoding": "inplace",
        "label": "enum InvestmentPool.ProposalStatus",
        "numberOfBytes": "1"
      },
      "t_mapping(t_address,t_bool)": {
        "encoding": "mapping",
        "key": "t_address",
        "label": "mapping(address => bool)",
        "numberOfBytes": "32",
        "value": "t_bool"
      },
      "t_mapping(t_address,t_struct(Member)706_storage)": {
        "encoding": "mapping",
        "key": "t_address",
        "label": "mapping(address => struct InvestmentPool.Member)",
        "numberOfBytes": "32",
        "value": "t_struct(Member)706_storage"
      },
      "t_mapping(t_address,t_uint256)": {
        "encoding": "mapping",
        "key": "t_address",
        "label": "mapping(address => uint256)",
        "numberOfBytes": "32",
        "value": "t_uint256"
      },
      "t_mapping(t_bytes32,t_struct(RoleData)22_storage)": {
        "encoding": "mapping",
        "key": "t_bytes32",
        "label": "mapping(bytes32 => struct AccessControl.RoleData)",
        "numberOfBytes": "32",
        "value": "t_struct(RoleData)22_storage"
      },
      "t_string_storage": {
        "encoding": "bytes",
        "label": "string",
        "numberOfBytes": "32"
      },
      "t_struct(Member)706_storage": {
        "encoding": "inplace",
        "label": "struct InvestmentPool.Member",
        "members": [
          {
            "astId": 699,
            "contract": "contracts/InvestmentPool.sol:InvestmentPool",
            "label": "balance",
            "offset": 0,
            "slot": "0",
            "type": "t_uint256"
          },
          {
            "astId": 701,
            "contract": "contracts/InvestmentPool.sol:InvestmentPool",
            "label": "depositedAt",
            "offset": 0,
            "slot": "1",
            "type": "t_uint256"
          },
          {
            "astId": 703,
            "contract": "contracts/InvestmentPool.sol:InvestmentPool",
            "label": "isActive",
            "offset": 0,
            "slot": "2",
            "type": "t_bool"
          },
          {
            "astId": 705,
            "contract": "contracts/InvestmentPool.sol:InvestmentPool",
            "label": "depositCounter",
            "offset": 0,
            "slot": "3",
            "type": "t_uint256"
          }
        ],
        "numberOfBytes": "128"
      },
      "t_struct(Proposal)724_storage": {
        "encoding": "inplace",
        "label": "struct InvestmentPool.Proposal",
        "members": [
          {
            "astId": 708,
            "contract": "contracts/InvestmentPool.sol:InvestmentPool",
            "label": "id",
            "offset": 0,
            "slot": "0",
            "type": "t_uint256"
          },
          {
            "astId": 710,
            "contract": "contracts/InvestmentPool.sol:InvestmentPool",
            "label": "description",
            "offset": 0,
            "slot": "1",
            "type": "t_string_storage"
          },
          {
            "astId": 712,
            "contract": "contracts/InvestmentPool.sol:InvestmentPool",
            "label": "target",
            "offset": 0,
            "slot": "2",
            "type": "t_address"
          },
          {
            "astId": 714,
            "contract": "contracts/InvestmentPool.sol:InvestmentPool",
            "label": "amount",
            "offset": 0,
            "slot": "3",
            "type": "t_uint256"
          },
          {
            "astId": 716,
            "contract": "contracts/InvestmentPool.sol:InvestmentPool",
            "label": "proposer",
            "offset": 0,
            "slot": "4",
            "type": "t_address"
          },
          {
            "astId": 718,
            "contract": "contracts/InvestmentPool.sol:InvestmentPool",
            "label": "createdAt",
            "offset": 0,
            "slot": "5",
            "type": "t_uint256"
          },
          {
            "astId": 720,
            "contract": "contracts/InvestmentPool.sol:InvestmentPool",
            "label": "executed",
            "offset": 0,
            "slot": "6",
            "type": "t_bool"
          },
          {
            "astId": 723,
            "contract": "contracts/InvestmentPool.sol:InvestmentPool",
            "label": "status",
            "offset": 1,
            "slot": "6",
            "type": "t_enum(ProposalStatus)729"
          }
        ],
        "numberOfBytes": "224"
      },
      "t_struct(RoleData)22_storage": {
        "encoding": "inplace",
        "label": "struct AccessControl.RoleData",
        "members": [
          {
            "astId": 19,
            "contract": "contracts/InvestmentPool.sol:InvestmentPool",
            "label": "hasRole",
            "offset": 0,
            "slot": "0",
            "type": "t_mapping(t_address,t_bool)"
          },
          {
            "astId": 21,
            "contract": "contracts/InvestmentPool.sol:InvestmentPool",
            "label": "adminRole",
            "offset": 0,
            "slot": "1",
            "type": "t_bytes32"
          }
        ],
        "numberOfBytes": "64"
      },
      "t_uint256": {
        "encoding": "inplace",
        "label": "uint256",
        "numberOfBytes": "32"
      }
    }
  }
}